{
  "contractName": "Sample",
  "abi": [
    {
      "constant": false,
      "inputs": [],
      "name": "addCounter",
      "outputs": [
        {
          "name": "",
          "type": "uint256"
        }
      ],
      "payable": false,
      "stateMutability": "nonpayable",
      "type": "function"
    }
  ],
  "bytecode": "0x608060405260008055348015601357600080fd5b5060af806100226000396000f300608060405260043610603f576000357c0100000000000000000000000000000000000000000000000000000000900463ffffffff16806308615e55146044575b600080fd5b348015604f57600080fd5b506056606c565b6040518082815260200191505060405180910390f35b6000806000815480929190600101919050559050905600a165627a7a72305820abad8adbe70abc55aac3e30fbfd67eabfb3dbe3d286de75a03ac2bb2f8574ce30029",
  "source": "pragma solidity ^0.4.23;\n\ncontract Sample {\n    uint Counter=0;\n\n    function addCounter() public returns(uint) {\n        return Counter++;\n    }\n} ",
  "sourcePath": "/Users/avilavate/Ethereum/Blockchain/Truffle/contracts/Sample.sol",
  "compiler": {
    "name": "solc",
    "version": "0.4.24+commit.e67f0147.Emscripten.clang"
  },
  "schemaVersion": "2.0.0",
  "updatedAt": "2018-06-09T16:48:18.429Z"
}